:020000040800F2
:10000000FCFF0020811C0000791C0000791C00000E
:10001000791C0000791C0000791C0000791C00008C
:10002000791C0000791C0000791C0000791C00007C
:10003000791C0000791C0000791C0000791C00006C
:10004000791C0000791C0000791C0000791C00005C
:10005000791C0000791C0000791C0000791C00004C
:10006000791C0000791C0000791C0000791C00003C
:10007000791C0000791C0000791C0000791C00002C
:10008000791C0000791C0000791C0000791C00001C
:10009000791C0000791C0000791C0000791C00000C
:1000A000791C0000791C0000791C0000791C0000FC
:1000B000791C0000791C0000791C0000791C0000EC
:1000C000791C0000791C0000791C0000791C0000DC
:1000D000791C0000791C0000791C0000791C0000CC
:1000E000791C0000791C0000791C0000791C0000BC
:1000F000791C0000791C0000791C0000791C0000AC
:10010000791C0000791C0000791C0000791C00009B
:10011000791C0000791C0000791C0000791C00008B
:10012000791C0000791C0000791C0000791C00007B
:10013000791C0000791C0000791C0000791C00006B
:10014000791C0000791C0000791C0000791C00005B
:1001500001480068704700BFA001002081B0194924
:1001600000EA0101084600220EE0042022E00820F7
:1001700020E010201EE020201CE040201AE080201B
:1001800018E040F2001015E00F498842EDD00F4909
:100190008842ECD00E498842EBD00E498842EAD022
:1001A0000D498842E9D00D498842E8D00C4988427F
:1001B000E7D010460B49096841EA000209490A6084
:1001C00001B0704700FCFFFF00080140000C014037
:1001D000001001400014014000180140001C0140C3
:1001E000002001401810024082B0CDF800E0034624
:1001F00019460191FFF7ACFF40F2E83100FB01F234
:1002000001990A601F490978C1F30311C8B21E4958
:1002100009180878C0B21A1D1968C140116019493F
:100220000988C1F3022188B2174909180878C0B2B9
:1002300003F20802191D0968C140116011490988BB
:10024000C1F3C22188B2104909180878C0B203F27C
:100250000C02191D0968C14011600A490988C1F3DF
:10026000813188B2094909180978C8B203F210022D
:1002700003F20C010968B1FBF0F11160DDF800E058
:1002800002B07047041002405421000054070000DF
:1002900083B0CDF800E000F0FF031A09104603F028
:1002A0000F02134614E0194A02921FE0184A029204
:1002B0001CE0184A029219E0174A029216E0174A07
:1002C000029213E0164A029210E0164A02920DE0E2
:1002D0000028E8D00128E9D00228EAD00328EBD092
:1002E0000428ECD00528EDD00628EED0012212B269
:1002F0009A40ADF8042002980A46BDF8041000F0B8
:1003000037FADDF800E003B0704700BF0008014095
:10031000000C014000100140001401400018014091
:10032000001C01400020014081B0CDF800E081B206
:10033000034800F007F8DDF800E001B0704700BFA7
:10034000003C004081B000F20C02116000F2080293
:100350001368C3F3000202B9F8E700F20C02126856
:1003600090B201B07047FFFF81B0CDF800E00122EC
:1003700052B23E490A6000F268010B686FF00061FA
:1003800003EA0102144603F00061C90E0B4602F0B5
:100390000041B1F1004F02D135490A6801E0354909
:1003A0000A6804F47021090C0E464FF6FF7104EA46
:1003B00001010D4604F44011B1F5401F0DD16FF05D
:1003C000706102EA01010E462A490A686FF0706105
:1003D0000A4028490A60324616E004F48011B1F55B
:1003E000801F09D14FF00301B140C94302EA010166
:1003F00041F070610A4607E0610D090105FA01F15B
:10040000C9430A4042F070622BB1610D090105FA3F
:1004100001F10A43FFE704F00041B1F1004F02D1BE
:1004200013490A6001E013490A6040F2000A81465C
:100430004FEA8A0109EB01010968B1F1FF3F10D0D1
:1004400009F134014FEA8A03C91809680A4609EB21
:100450000301096808461146FFF71AFF0AF1010A6D
:10046000E6E7DDF800E001B0704700BF000342425C
:100470001C0001400400014044F67F77C0F21207DF
:100480007F1EFDD100BF00BF00BF00BF00BF70478F
:1004900081B000230360CB009BB242EA03030468EF
:1004A0009BB244EA03030360051D13141C462B682A
:1004B00064F382032B6000F21C0500242B6864F3B4
:1004C000CB232B600124036864F38613036001B01F
:1004D0007047FFFF81B0CDF800E081B20348FFF71D
:1004E00031FFDDF800E001B0704700BF0038004088
:1004F00081B0ADF800100146BDF800000B68C3F3F1
:10050000C01202B9FAE70A1D106001B07047FFFF80
:1005100089B0CDF800E0834698B28C46BDF824102F
:100520000A9E04ACADF80410ADF808002046FFF7B1
:100530005BFEBDF80800BDF80410644CA34512D161
:1005400001256DB2624C2560624D634C2560634DA0
:10055000634C2560634D644C2560644D644C25609C
:10056000079C039456E0634CA34512D101256DB25C
:10057000614C2560614D584C2560614D584C25609B
:10058000604D594C2560604D594C2560069C039484
:1005900040E05E4CA34512D101256DB25C4C256054
:1005A0005C4D4D4C25605C4D4D4C25605B4D4E4C7B
:1005B00025605B4D4E4C2560069C03942AE0594C07
:1005C000A34512D101256DB2574C2560574D424CC1
:1005D0002560574D424C2560564D434C2560564D85
:1005E000434C2560069C039414E0544CA34511D160
:1005F00001256DB2524C2560524D374C2560524D4D
:10060000374C2560514D384C2560514D384C256094
:10061000069C0394ADF80410ADF808003046FFF7CF
:10062000A3FEBDF80800BDF804100BF1100500246E
:100630002C600BF110052C680C432C600BF10C05A1
:1006400000242C6018B140F4806080B2FFE70BF109
:100650000C052C6804432C600BF10C060125346852
:1006600065F34D3434600BF10C060125346865F3F5
:10067000C30434600BF10C060125346865F3820471
:1006800034600BF1140500242C60039D192465438C
:100690004FEA8C04B5FBF4F76424B7FBF4F42601AD
:1006A000350964246C433C1B240104F232056424A4
:1006B000B5FBF4F404F00F0446EA04040BF108055A
:1006C000A4B22C60DDF800E009B0704700380140AA
:1006D00038034242190A0000AC010020FFFFFFFF6F
:1006E000B0010020FFFFFFFFB4010020FFFFFFFF6C
:1006F000B801002000440040C4034242C509000084
:10070000FFFFFFFFFFFFFFFFFFFFFFFF004800406D
:10071000C8034242A9090000FFFFFFFFFFFFFFFFE0
:10072000FFFFFFFF004C0040CC034242FD090000E8
:10073000FFFFFFFFFFFFFFFFFFFFFFFF0050004035
:10074000D0034242E1090000FFFFFFFFFFFFFFFF70
:10075000FFFFFFFF020406084DF2BF47C0F201078A
:100760007F1EFDD100BF00BF00BF00BF00BF7047AC
:1007700081B0CDF800E08CB21546774B00EA030358
:100780001E461846FFF7EAFCB4F1FF0F0CD1734B7D
:100790009D4203D14FF033333360D9E0422D03D172
:1007A0004FF044333360D3E04FF6FF739C4214D1D3
:1007B0006A4B9D4207D14FF033333360341D4FF005
:1007C00033332360C4E0422D07D14FF0443333600C
:1007D000341D4FF044332360BAE00021002005F0BF
:1007E00001030BB100211DE005F0020333B105F454
:1007F000C0730BB1082100E0042113E005F00403ED
:1008000033B105F020030BB1042100E0002109E021
:1008100005F0080333B105F020030BB10C2100E013
:100820000821FFE74E4B05EA03030BB1032009E063
:1008300005F400730BB1022004E005F480630BB1F2
:100840000120FFE705F00C030BB10143FFE704F0C3
:10085000FF039BB2002B3BD0376800201FFA84F8BF
:1008600032462E4608282CD24FF0010303FA00F43A
:1008700008EA0403A34222D185004FF00F03AB40E6
:10088000DB4307EA030401FA05F344EA03031D46C8
:1008900006F48173B3F5817F05D102F214044FF0A1
:1008A00001038340236006F08203822B05D102F20C
:1008B00010044FF00103834023602F46FFE7401CE4
:1008C000D0E717601FFA88F00F463146164602E05F
:1008D0000F462946A0B2B0F1FF0F39D9331DD3F826
:1008E00000800022082A30D202F208044FF00103EF
:1008F00003FA04F400EA0403A34224D195004FF064
:100900000F03AB40DB4308EA030807FA05F348EAA4
:10091000030801F48173B3F5817F07D106F2140552
:1009200002F208044FF00103A3402B6001F08203A0
:10093000822B07D106F2100502F208044FF00103E2
:10094000A3402B60FFE7521CCCE7331DC3F80080A7
:10095000DDF800E001B0704700FCFFFF1400080064
:100960000008080081B0CDF800E081B20348FFF72D
:10097000E9FCDDF800E001B0704700BF0030014045
:1009800081B0CDF800E0019D2C4610B408B493B2BC
:100990008AB201460348FFF7BBFD02B0DDF800E074
:1009A00001B070470038014081B0CDF800E081B25D
:1009B0000348FFF79DFDDDF800E001B0704700BF80
:1009C0000048004081B0CDF800E081B20348FFF755
:1009D0008FFDDDF800E001B0704700BF004400402B
:1009E00081B0CDF800E081B20348FFF781FDDDF86A
:1009F00000E001B0704700BF0050004081B0CDF86A
:100A000000E081B20348FFF773FDDDF800E001B0BC
:100A1000704700BF004C004081B0CDF800E081B2CB
:100A20000348FFF765FDDDF800E001B0704700BF47
:100A30000038014081B0CDF800E081B20348FFF7F3
:100A400081FCDDF800E001B0704700BF00300140DC
:100A500081B0CDF800E0FFF70FFDFFF70DFDFFF7C8
:100A60000BFDFFF779FEFFF777FEFFF775FEFFF747
:100A700073FEFFF771FEDDF800E001B07047FFFF85
:100A800081B0CDF800E081B20348FFF75BFCDDF8F0
:100A900000E001B0704700BF003C004081B0CDF8DD
:100AA00000E081B20348FFF74DFCDDF800E001B043
:100AB000704700BF0038004081B0CDF800E0019DD4
:100AC0002C4610B408B493B28AB201460348FFF72B
:100AD0001FFD02B0DDF800E001B0704700440040A7
:100AE00081B0CDF800E0044A89B2FFF741FEDDF89D
:100AF00000E001B0704700BF1400080081B0CDF8DD
:100B000000E04FF0420289B2FFF732FEDDF800E06C
:100B100001B0704783B0CDF800E08DF80400029179
:100B20000B4C0C4B1C600C4C0C4B1C60012464B235
:100B30000B4B1C601046FFF717FC029A9DF804103F
:100B40000848FFF7A5FCDDF800E003B0704700BFE0
:100B500029030000A4010020810A0000A801002050
:100B6000BC034242003C004083B0CDF800E0ADF849
:100B700008100190BDF80830BDF80820521EADF8ED
:100B800008204BB10020064C2468A047019A107041
:100B9000019A521C0192EDE7DDF800E003B07047C6
:100BA000C401002081B0CDF800E0019D2C4610B4B6
:100BB00008B493B28AB201460348FFF7A9FC02B019
:100BC000DDF800E001B070470048004001490860CE
:100BD000704700BFB081224201490860704700BFE2
:100BE000AC81224201490860704700BF98812142D0
:100BF00001490860704700BF9C812142014908609B
:100C0000704700BF9881224201490860704700BFC9
:100C10009481224201490860704700BFB881224296
:100C200001490860704700BF8C01224201490860F9
:100C3000704700BF9401214201490860704700BF1E
:100C4000B001224201490860704700BFAC01224256
:100C500001490860704700BFA801224281B0CDF869
:100C600000E000F071F800F00100C0B2DDF800E033
:100C700001B0704781B0002808BF0FE002B54FF007
:100C80009E0202D4521E4000FCD580302CBF521C64
:100C90004000400A40EAC250BDE8024001B070473F
:100CA00081B0FAB590EA02064CBF4FF000464FF013
:100CB00000064FEA00214FEA40031B0E12BF41F02D
:100CC00000414FF000002CE0FF2B26D04FEA022419
:100CD0004FEA42052D0E12BF44F000444FF00000D1
:100CE0001FE0FF2D19D05B19A1FB0454002C5CBF41
:100CF00064005B1E803424BF5B1C64087E3BDCBF49
:100D00004FF000000DE0FF2B07D24FEA142030F423
:100D1000000040EAC350304303E0FF27FF0546EAE6
:100D20000700BDE8FA4001B07047FFFF81B0CDF881
:100D300000E000F009F8800800F00100C0B2DDF822
:100D400000E001B07047FFFF82B0CDF800E0002066
:100D5000104C2468A047FFF77BFE01A80421FFF791
:100D600003FF01200B4C2468A04701AA1078010260
:100D7000501C007841EA00000102901C007841EA12
:100D800000000102D01C007841EA0000DDF800E01C
:100D900002B07047BC01002081B0CDF800E0FFF741
:100DA000D3FF400800F00100C0B2DDF800E001B060
:100DB0007047FFFF81B010B5904208BF2AE040EABB
:100DC00002044FEA4404002C08BF23E0440004D18D
:100DD000944201D4A41C012C1CE04FEA40044FEAC9
:100DE0001464FF2C0AD14FEA42044FEA1464FF2C2A
:100DF00004D14FEAD274B4EBD0340BE0002A06D40D
:100E0000002802DC0024012C04E0904202E00028CB
:100E100048BF8242BDE8104001B0704700F20801AF
:100E20000A6801490A607047BC0100200268034952
:100E30000A60011D0A6802490A607047C00100206B
:100E4000C401002081B082F000422DE9FA414FEA4E
:100E500002244FEA42052D0E04D1002C18BF4FF09A
:100E600000006CE044F00044FF2D5FD04FEA940492
:100E7000002A48BF64424FEA00214FEA40031B0E9C
:100E800005D1002914BF4FF00000104657E041F093
:100E90000041FF2B4BD04FEA9101002848BF494247
:100EA0005E1B41BF0F4621463C46764248BF2B465B
:100EB000192E47BF44FA06F7C9194FF0000803E09E
:100EC000C6F11C0704FA07F8002904BF4FF0000020
:100ED00035E046BF49424FF001074FF00007A3F14C
:100EE00001034900FBD511F080040DD001F020056D
:100EF00048EA0508803128BF5B1C01F0400458EA2D
:100F0000040808BF21F480719B1CDCBF4FF0000077
:100F100015E0FF2B0DD221F0FF014FEA41014FEA0E
:100F2000512040EAC35040EAC77008E010464FEA3B
:100F3000D0774FEAC777FF204FEAC0503843BDE86B
:100F4000FA4101B07047FFFF81B02DE9FA414FEA45
:100F500002244FEA42052D0E04D1002C18BF4FF099
:100F600000006CE044F00044FF2D5FD04FEA940491
:100F7000002A48BF64424FEA00214FEA40031B0E9B
:100F800005D1002914BF4FF00000104657E041F092
:100F90000041FF2B4BD04FEA9101002848BF494246
:100FA0005E1B41BF0F4621463C46764248BF2B465A
:100FB000192E47BF44FA06F7C9194FF0000803E09D
:100FC000C6F11C0704FA07F8002904BF4FF000001F
:100FD00035E046BF49424FF001074FF00007A3F14B
:100FE00001034900FBD511F080040DD001F020056C
:100FF00048EA0508803128BF5B1C01F0400458EA2C
:10100000040808BF21F480719B1CDCBF4FF0000076
:1010100015E0FF2B0DD221F0FF014FEA41014FEA0D
:10102000512040EAC35040EAC77008E010464FEA3A
:10103000D0774FEAC777FF204FEAC0503843BDE86A
:10104000FA4101B07047FFFF81B00091014600985E
:101050000B461C465A1C15460346421C10461A787D
:10106000227022780AB12B46F3E7084601B0704798
:1010700081B0CDF800E0094902B440F2000340F22B
:10108000000240F20001FFF77BFC01B0044A054971
:101090000A600020DDF800E001B070478820000001
:1010A000190A00009C01002081B0CDF800E0094938
:1010B00002B440F2000340F2000240F20001FFF7E8
:1010C000FBFC01B0044A05490A600020DDF800E09D
:1010D00001B07047441F0000C50900009C010020BA
:1010E00081B0CDF800E0094902B440F2000340F2BB
:1010F000000240F20001FFF7DFFC01B0044A05499D
:101100000A600020DDF800E001B07047441F0000D5
:10111000C50900009C01002001490860704700BF1C
:101120009001214281B0CDF800E00178CCB2A0B2AC
:10113000034C2468A0470020DDF800E001B07047B0
:101140009C01002081B0CDF800E0A9E0012905D183
:1011500040F220016548FFF7D1FC04E040F2200195
:101160006248FFF7BDFCBBE0012905D140F2080150
:101170005F48FFF7C3FC04E040F208015C48FFF75A
:10118000AFFCADE0012905D144F200015948FFF759
:10119000B5FC04E044F200015648FFF7A1FC9FE0D3
:1011A000012905D140F200415148FFF7A7FC04E0B6
:1011B00040F200414E48FFF793FC91E0012905D130
:1011C00040F600014A48FFF799FC04E040F60001B0
:1011D0004748FFF785FC83E0012905D141F2000172
:1011E0004348FFF78BFC04E041F200014048FFF761
:1011F00077FC75E0012905D141F200013D48FFF778
:101200007DFC04E041F200013A48FFF769FC67E029
:10121000012905D140F600013648FFF76FFC04E0D4
:1012200040F600013348FFF75BFC59E0012905D186
:1012300040F240012F48FFF761FC04E040F240011A
:101240002C48FFF74DFC4BE0012905D140F220016D
:101250002848FFF753FC04E040F220012548FFF73F
:101260003FFC3DE0012905D140F240012248FFF753
:1012700045FC04E040F240011F48FFF731FC2FE03D
:10128000012905D140F280011B48FFF737FC04E03B
:1012900040F280011848FFF723FC21E0012020E004
:1012A00000283FF453AF01283FF45EAF02283FF41B
:1012B00069AF03283FF474AF04283FF47FAF0528DB
:1012C0003FF48AAF06283FF495AF0728A0D008283E
:1012D000ACD00928B8D00A28C4D00B28D0D0DDE77C
:1012E0000020DDF800E001B0704700BF00080140B9
:1012F0000010014000140140000C014081B0CDF805
:1013000000E0A9E0012905D140F210016548FFF78E
:10131000F5FB04E040F210016248FFF7E1FBBBE09F
:10132000012905D140F204015F48FFF7E7FB04E023
:1013300040F204015C48FFF7D3FBADE0012905D181
:1013400042F200015948FFF7D9FB04E042F20001E4
:101350005648FFF7C5FB9FE0012905D140F2004147
:101360005148FFF7CBFB04E040F200414E48FFF745
:10137000B7FB91E0012905D140F600014A48FFF78B
:10138000BDFB04E040F600014748FFF7A9FB83E0FE
:10139000012905D141F200014348FFF7AFFB04E00A
:1013A00041F200014048FFF79BFB75E0012905D1A0
:1013B00040F201013B48FFF7A1FB04E040F20101CC
:1013C0003848FFF78DFB67E0012905D140F2004165
:1013D0003648FFF793FB04E040F200413348FFF743
:1013E0007FFB59E0012905D140F200212F48FFF78A
:1013F00085FB04E040F200212C48FFF771FB4BE035
:10140000012905D140F200112848FFF777FB04E0DD
:1014100040F200112548FFF763FB3DE0012905D1AB
:1014200040F240012248FFF769FB04E040F240012E
:101430001F48FFF755FB2FE0012905D140F280013D
:101440001B48FFF75BFB04E040F280011848FFF700
:1014500047FB21E0012020E000283FF453AF0128A2
:101460003FF45EAF02283FF469AF03283FF474AF46
:1014700004283FF47FAF05283FF48AAF06283FF4E5
:1014800095AF0728A0D00828ACD00928B8D00A28E2
:10149000C4D00B28D0D0DDE70020DDF800E001B09B
:1014A000704700BF000801400010014000140140D7
:1014B000000C014081B0CDF800E0011D0A68016810
:1014C000C8B21146034AFFF725FB0020DDF800E013
:1014D00001B07047B01F000081B0CDF800E00949AD
:1014E00002B440F2000340F2000240F20001FFF7B4
:1014F00059FB01B0044A05490A600020DDF800E00C
:1015000001B070471C200000A90900009C010020C8
:1015100081B0CDF800E0011D0A680168C8B211462B
:10152000034AFFF7F7FA0020DDF800E001B070474A
:10153000B01F000001490860704700BF88012242C7
:1015400001490860704700BFA88122420149086034
:10155000704700BF8001214201490860704700BF09
:10156000B001224201490860704700BFA0812242B9
:1015700001490860704700BFA48122420149086008
:10158000704700BF9881214201490860704700BF41
:10159000AC01224201490860704700BF9C81214292
:1015A00001490860704700BFA80122420149086054
:1015B000704700BFB481224281B0CDF800E08B4675
:1015C00009E05846FFF776FF0AE05846FFF7A0FF0C
:1015D00006E0012004E00028F3D00128F5D0F8E768
:1015E000DDF800E001B0704782B0CDF800E00246BF
:1015F0000C460020002149B20192019AB2F1FF3F4E
:1016000006D1714A11462046FFF71EFD0320D7E0A0
:10161000012501AAD21C127802F08002D2B272B166
:1016200001AAD31C1A7882F080021A706A1CD3B205
:101630002D222270621C1446DEB2A24601E0A246B0
:10164000EEB2019A32B9614A11465046FFF7FCFCEE
:101650000020B5E0019AB2F1FF4F06D15C4A114675
:101660005046FFF7F1FCF0B2AAE05FFA80F94FFABA
:1016700081F8019A4FF07E50FFF79CFB40F200008A
:1016800000DD012048B1019A5248FFF709FB0190A3
:10169000A8F101084FFA88F8EBE7019A4D48FFF7E7
:1016A00089FB40F2000000DC012048B1019A4A4861
:1016B000FFF7F6FA019008F101084FFA88F8ECE715
:1016C000019A5200019201AAD21C12787F3AD0B23C
:1016D00001AAD31C01221A70019A8240019201AA28
:1016E000D21C127830328AF800200AF10100B8F1D9
:1016F000010F06DBB8F1060F03DC05465FFA89F13E
:1017000003E02E220270451C012106204FFA88F4C6
:1017100000B301AAD31C00221A70019A9300019A07
:10172000D2180192019A5200019201AAD21C127899
:1017300030322A706D1C51B9621E52B253B222B9B6
:101740002E222A706D1C0121FFE75CB2FFE7401ECC
:10175000C0B2DDE7294660B24A1E1278302A01D1B4
:10176000491EF9E74A1E12782E2A01D1491EFFE7C9
:1017700010B365220A70491C002806DA2D220A706F
:10178000491C424250B243B200E043B2D8B2DAB28E
:10179000092A07D90A22B0FBF2F2D2B230320A701B
:1017A000491CFFE70A23B0FBF3F203FB1202D2B29B
:1017B00030320A70481C00E0084600220270002007
:1017C000DDF800E002B0704754010020580100200D
:1017D0005A01002000002041CDCCCC3D84B0CDF892
:1017E00000E000202B4C2468A047FFF731F902A845
:1017F0000421FFF7B9F90120264C2468A04702A86C
:101800000278D3B2190289B2401C007841EA000084
:101810001FFA80F9802A21D96FEA090080B21FFAE5
:1018200080F8800880B200F0030080B2FFF722FA4F
:10183000194AFFF735FA03464FEA181080B2FFF74E
:1018400019FA03900191039918460A46FFF7FAFA2C
:1018500001994FF07E52FFF777FB16E04FEA9900AF
:1018600080B200F0030080B2FFF704FA4FF07A5222
:10187000FFF716FA03464FEA191080B2FFF7FAF99C
:101880001A46FFF761FB01460846DDF800E004B0A8
:10189000704700BFBC010020000080BE81B0CDF8C1
:1018A00000E05FFA81F95FFA82FA0FE05FFA8AF1ED
:1018B0005FFA89F0FFF722FD0DE05FFA8AF15FFA27
:1018C00089F0FFF73FFC06E0012004E00028EDD09E
:1018D0000128F2D0F8E7DDF800E001B07047FFFF23
:1018E00083B0CDF800E0024610460D228DF80820A6
:1018F0000A228DF809201FE0FFF714FC23E002788C
:101900002AB10190FFF70EFC0198401CF7E71AE09E
:1019100002782AB10190FFF705FC0198401CF7E717
:1019200002AA1046FFF7FEFB0DF109021046FFF771
:10193000F9FB08E0062007E00029DDD00129DED010
:101940000229E5D0F6E70020DDF800E003B070479B
:1019500081B0CDF800E0FFF7F7F9000C00F00100CE
:10196000C0B2DDF800E001B07047FFFF81B0CDF8F4
:1019700000E003460846FFF759FA1846FFF74EFA0B
:101980000020034C2468A047DDF800E001B0704758
:10199000BC01002081B0CDF800E010480221FFF723
:1019A0009FFFFFF7C3F918B10D480221FFF798FF19
:1019B000FFF7F2F918B10B480221FFF791FFFFF78B
:1019C0004DF918B108480221FFF78AFF07480221A4
:1019D000FFF786FFDDF800E001B07047AF000020A0
:1019E000C7000020E0000020F900002012010020C4
:1019F00081B0CDF800E011E00846FFF76DFD16E07C
:101A00000846FFF751FB12E00846FFF731FB0EE0F6
:101A10000846FFF765FB0AE0012008E00028EBD04C
:101A20000128EDD02028EFD03028F1D0F4E7DDF800
:101A300000E001B07047FFFF81B01548006840F03A
:101A400001011348016013491348016010480168FF
:101A5000124801400E4801600D4801686FF4802073
:101A600001400B4801600C4801686FF4FE00014022
:101A700009480160064801686FF0A0500140044821
:101A800001604FF000010648016001B0704700BFDF
:101A9000001002400000FFF004100240FFFFF6FEBD
:101AA0002C10024081B01CF8019B0BF8019BBBEB92
:101AB0000A0FF8D101B0704781B04FF000094FF024
:101AC000000CBDEB0A0F04DCBDEB0B0F01DBD446B1
:101AD000EA464BF8049BBBEB0A0FFAD1BCEB0A0FAA
:101AE00005DDE246D9F800B00BF1040BF1E701B0D7
:101AF0007047FFFFFFFFFFFF81B0CDF800E0FFF769
:101B00006DFE124908601249FFF76EFD1148012170
:101B1000FFF7E6FE01210E48FFF7E2FE02210E4824
:101B2000FFF7DEFE0D480221FFF7DAFE45F2FF0760
:101B3000C0F2252700BF00BF7F1EFDD100BF00BF40
:101B400000BFDDF800E001B0704700BF6401002075
:101B5000680100202B0100205E0100203B010020D5
:101B600081B0CDF800E01A491A48FFF7FFFE44F6AD
:101B70007F77C0F2120700BF00BF7F1EFDD100BFFC
:101B800000BF00BF14480221FFF7AAFE134802213C
:101B9000FFF7A6FE202112480170B0211148017004
:101BA000432111480170002110480170FFF7D0FE59
:101BB00010B1FFF7EFFE03E00D480221FFF790FEA2
:101BC0000C480221FFF78CFEDDF800E001B0704701
:101BD0006C210000F42000004B0000206400002075
:101BE0005E0100205F0100206001002061010020F3
:101BF0007D0000209600002081B0CDF800E000229A
:101C000002210020FFF74AFE124801460020FFF79C
:101C1000D3FC42F280512020FFF7EAFE0E48022159
:101C2000FFF75EFE0D480221FFF75AFE0C48022125
:101C3000FFF756FE44F67F77C0F2120700BF00BFE1
:101C40007F1EFDD100BF00BF00BFDDF800E001B086
:101C5000704700BF64210000000000201900002030
:101C60003200002081B002490248016001B0704793
:101C700040190100A001002081B0FEE701B07047CB
:101C800000F00EF800F0B6FAFFF7ECFF00F072FA81
:101C9000FFF7B2FFFFF764FFFFF72EFFFCE7FEE759
:101CA00081B0CDF800E0464A464B474C47494BF6D9
:101CB0008030814206D94648006840F0020144481D
:101CC000016011E045F6C050814206D940480068E5
:101CD00040F001013E48016006E03D4801686FF0B8
:101CE000070001403A480160FFF7A6FE394803604B
:101CF00039480460394802EA00013948016002F0BD
:101D0000010040B119463648006800F00200002882
:101D100000D1F8E700E0194602F4803040B10B46EC
:101D20002F48006800F40030002800D1F8E700E0F8
:101D30000B4602F0805068B12948006840F080519D
:101D4000274801602648006800F00050002800D1B4
:101D5000F8E7FFE702F0806078B12148006840F0C2
:101D600080611F48016011461A461D48006800F056
:101D70000060002800D1F8E701E011461A4601F0A2
:101D8000807070B11648006840F08071144801609E
:101D900011461348006800F0007000B9F9E70A46E0
:101DA000FFE70C48006800F00C01900000F00C0008
:101DB000814200D0F5E7DDF800E001B0704700BFD8
:101DC0008100010502841D00440601004019010044
:101DD00000200240041002402C100240FFFF0F00C0
:101DE000001002402D2D2D2D2D2D2D2D2D2D2D2D85
:101DF0002D2D2D2D2D2D2D2D2D2D2D2D0020202067
:101E0000202020546865726D6F20436C69636B20DD
:101E10002020202020002D2D2D2D2D2D2D2D2D2D60
:101E20002D2D2D2D2D2D2D2D2D2D2D2D2D2D00201C
:101E3000202044726976657220496E697469616C0C
:101E4000697A6564202020002D2D2D2D2D2D2D2D1E
:101E50002D2D2D2D2D2D2D2D2D2D2D2D2D2D2D2DB2
:101E60000020202020202020535441545553204F3F
:101E70004B2020202020202020002D2D2D2D2D2D09
:101E80002D2D2D2D2D2D2D2D2D2D2D2D2D2D2D2D82
:101E90002D2D002020202020202020204552524F90
:101EA00052202020202020202020002053686F7204
:101EB000742D63697263756974656420746F20564C
:101EC000636320002053686F72742D6369726375B9
:101ED0006974656420746F20474E442000202020E0
:101EE00020204E6F20436F6E6E656374696F6E7352
:101EF0002020202020002D2D2D2D2D2D2D2D2D2D80
:101F00002D2D2D2D2D2D2D2D2D2D2D2D2D2D00203B
:101F100054656D7065726174757265203A20002D8C
:101F20002D2D2D2D2D2D2D2D2D2D2D2D2D2D2D2DE1
:101F30002D2D2D2D2D2D2D004E614E003000494EA2
:101F40004600FFFF3500000036000000FFFFFFFFE6
:101F50000000000000000000000000000000000081
:101F60000000000000000000000000000000000071
:101F70000000000000000000180800001800000029
:101F80000000000000000000000000000000000051
:101F90000000000000000000000000000000000041
:101FA0000000000000000000000000000800000821
:101FB0002A0000002B0000002C000000FFFFFFFFA4
:101FC0000000000000000000000000000000000011
:101FD0000000000000000000000000000000000001
:101FE0000000000018080000180800001808000091
:101FF00000000000000000000000000000000000E1
:1020000000000000000000000000000000000000D0
:10201000000000000000000000112008380000004F
:1020200039000000FFFFFFFF00000000000000007B
:1020300000000000000000000000000000000000A0
:102040000000000000000000000000000000000090
:102050001808000018000000000000000000000048
:102060000000000000000000000000000000000070
:102070000000000000000000000000000000000060
:102080000000000030001408090000000A000000F1
:10209000FFFFFFFF00000000000000000000000044
:1020A0000000000000000000000000000000000030
:1020B0000000000000000000000000001808000000
:1020C00018000000000000000000000000000000F8
:1020D0000000000000000000000000000000000000
:1020E00000000000000000000000000000000000F0
:1020F000040000001911000035150000AD150000A6
:10210000A115000089150000591500004D150000AB
:102110004115000071150000651500007D150000D7
:1021200095150000FFFFFFFFFFFFFFFFFFFFFFFF11
:10213000FFFFFFFFFFFFFFFFFFFFFFFFFFFFFFFFAF
:10214000FFFFFFFFFFFFFFFFFFFFFFFFFFFFFFFF9F
:10215000FFFFFFFF0000000001020304010203046F
:10216000060708090700000004030000810A0000B8
:102170002903000000B5DFF814B0DFF814A0DFF881
:1021800014C0FFF78FFC00BD704700BF00000020A7
:102190005E010020E41D0000FFFFFFFFFFFFFFFFC7
:1021A000FFFFFFFFFFFFFFFFFFFFFFFFFFFFFFFF3F
:1021B000FFFFFFFFFFFFFFFFFFFFFFFFFFFFFFFF2F
:1021C000FFFFFFFFFFFFFFFFFFFFFFFFFFFFFFFF1F
:1021D000FFFFFFFFFFFFFFFFFFFFFFFFFFFFFFFF0F
:1021E000FFFFFFFFFFFFFFFFFFFFFFFFFFFFFFFFFF
:1021F000FFFFFFFF00B5DFF810B0DFF810A0FFF71A
:102200005BFC00BD704700BF00000020C80100203B
:00000001FF
