:10000000A1EF11F00000000000EF00F00000000080
:0A0010000000000000000000F3D71C
:10001C00FBC16AFF016A0150000A05E1000E68B0DD
:0C002C00010E016EF8D76ACF00F0120040
:10003800FBC1C9FF016A0150000A05E1000EC7B003
:0C004800010E016EF8D7C9CF00F01200C5
:0E0054000101FAB102D08B9401D08B8412000E
:0E0062000101FAB102D08B9601D08B861200FC
:0E0070000101FAB102D08B9801D08B881200EA
:0E007E000101FAB102D08D9201D08D821200E4
:0E008C000101FAB102D08B9A01D08B8A1200CA
:0E009A000101FAB102D08B9601D08B861200C4
:0E00A8000101FAB102D08D9601D08D861200B2
:0E00B6000101FAB102D08B9801D08B881200A4
:0E00C4000101FAB102D08A9201D08A821200A4
:0E00D2000101FAB102D08D9401D08D8412008C
:0E00E0000101FAB102D0899401D08984120086
:0E00EE000101FAB102D08B9601D08B86120070
:1000FC000F0121B302D00000FBD7FAC11CFF120084
:0E010C000101FAB102D08B9801D08B8812004D
:0E011A000101FAB102D08B9601D08B86120043
:0E0128000101FAB102D08B9E01D08B8E120025
:0E013600ACB202D00000FCD7FAC1ADFF12003F
:0E0144000101FAB102D08B9C01D08B8C12000D
:0E0152000101FAB102D0899801D0898812000B
:10016000FAC16AFF016A0150000A05E1000E68B099
:0C017000010E016EF8D76ACF01F01200FA
:10017C00FAC1C9FF016A0150000A05E1000EC7B0BF
:0C018C00010E016EF8D7C9CF01F012007F
:0E0198000101FAB102D08D9001D08D801200CD
:1001A600D00E0C6EC90E0D6E0D2EFED70C2EFCD782
:0601B60000000000120031
:0E01BC000101FAB102D08B9601D08B861200A1
:0E01CA000101FAB102D08B9C01D08B8C120087
:0E01D8000101FAB102D0899201D08982120091
:0E01E6000101FAB102D08B9801D08B88120073
:0E01F4000101FAB102D08B9201D08B82120071
:0E0202000101FAB102D08B9A01D08B8A120052
:0E0210000101FAB102D08B9E01D08B8E12003C
:0E021E000101FAB102D08A9001D08A8012004C
:0E022C000101FAB102D08B9801D08B8812002C
:08023A000AAE029E000E120044
:100242000B840BAE2CEF01F0010E036E026A016A01
:0A025200006A0A360232FF0E1200A5
:10025C00F250026EF29E0500FF6A0150FE6E0050D5
:08026C00FD6E02BEF28E1200CD
:0E0274000101FAB102D08F9001D08F801200EC
:10028200090E0B6E1E0E0C6EE40E0D6E0D2EFED7B9
:0C0292000C2EFCD70B2EFAD70000120037
:0E029E000101FAB102D08A9401D08A841200C4
:1002AC000B820BAE60EF01F0036802680168006816
:0802BC000A360232FF0E1200A7
:0E02C4000101FAB102D08B9601D08B86120098
:0E02D2000101FAB102D08F9401D08F84120086
:0E02E000026A016A006A086A036A000E1200D0
:0E02EE000101FAB102D08B9A01D08B8A120066
:0E02FC000101FAB102D08F9201D08F82120060
:0E030A000101FAB102D08B9801D08B8812004D
:0E0318000101FAB102D08B9001D08B8012004F
:0E0326000101FAB102D0899001D08980120045
:100334000CB0DCEF01F00CA282EF02F00E6A000EAA
:100344000264F3EF01F0F00E0214D8A4BEEF01F042
:10035400023A01380F0B02260138F00B016E003807
:100364000F0B01260038F00B006E08380F0B002627
:100374000838F00B086E0E84D89002BED7EF01F057
:1003840008360036013602360E2A02BED7EF01F0D7
:1003940008360036013602360E2A02BED7EF01F0C7
:1003A40008360036013602360E2A0E50036478EF02
:1003B40002F0035E0BBC08AE7DEF02F0D880800E25
:1003C40008640030000E002201220222D8A07DEF32
:1003D40002F0023201320032034A82EF02F07DEF72
:1003E40002F001C002F000C001F008C000F0086A89
:1003F400000E0E8602642AEF02F0F00E0214D8A456
:1004040012EF02F0023A01380F0B02260138F00B0A
:10041400016E00380F0B01260038F00B006E0E84BD
:10042400D89002BED7EF01F00036013602360E2A0C
:1004340002BED7EF01F00036013602360E2A02BEA4
:10044400D7EF01F00036013602360E2AD7EF01F05D
:1004540001C002F000C001F0006A000E0E960E8882
:10046400026457EF02F0F00E0214D8A442EF02F037
:10047400023A01380F0B02260138F00B016E0E848C
:10048400D89002BED7EF01F0013602360E2A02BE22
:10049400D7EF01F0013602360E2A02BED7EF01F083
:1004A400013602360E2AD7EF01F001C002F0016ACC
:1004B400000E0E86026487EF02F0F00E0214D8A438
:1004C40066EF02F0023A0E84D89002BED7EF01F034
:1004D40002360E2A02BED7EF01F002360E2A02BE01
:1004E400D7EF01F002360E2AD7EF01F0010E0C6EA1
:1004F400A6DE8AEF02F0020E0C6E9DDE8AEF02F099
:10050400040E0C6ED1DE8AEF02F0080E0C6EE6DEED
:020514001200D3
:10051600B5DEB4DEB3DE44DE43DE42DE41DE40DE7F
:020526001200C1
:10052800F4C1F8F1F5C1F9F1F6C100F0F7C101F035
:10053800010E0101F65F000EF75B0050011014E098
:10054800BFC1E1FFC0C1E2FFE66ABDC100F0BEC1A4
:1005580001F080DEF8C1E1FFF9C1E2FF00C0E6FF6B
:0A0568000101F84BF92BE0D7120057
:10057200C7C1E1FFC8C1E2FFE66AC5C100F0C6C15A
:1005820001F06BDEC7DFEC0E0101F46F010EF56FB7
:10059200040EF66F000EF76FC6DFC7C1E1FFC8C1D8
:1005A200E2FF010EE66EC5C100F0C6C101F055DEE4
:1005B200ECC1F0F1000E0101F16FF26FF36FF2C1C5
:1005C20003F0F1C102F0F0C101F0006A00C0F0F1E5
:1005D20001C0F1F102C0F2F103C0F3F1ED510010DC
:1005E200056E01C006F002C007F003C008F0000E5D
:1005F20006120712081205C0F0F106C0F1F107C099
:10060200F2F108C0F3F107C003F006C002F005C022
:1006120001F0006A00C0F0F101C0F1F102C0F2F194
:1006220003C0F3F1EE510010056E01C006F002C0E6
:1006320007F003C008F0000E06120712081205C0E8
:10064200F0F106C0F1F107C0F2F108C0F3F107C002
:1006520003F006C002F005C001F0006A00C0F0F12C
:1006620001C0F1F102C0F2F103C0F3F1EF51001247
:10067200000E01120212031200C0F0F101C0F1F1EA
:0A06820002C0F2F103C0F3F1120010
:10068C00360E0101B16F010EB26FFA0EB36F010E8F
:10069C00B46FFF0EB56FFF0EB66F000EB76F000E86
:1006AC00B86FFF0EA96FFF0EAA6F000EAB6F000E96
:1006BC00AC6FFF0EAD6FFF0EAE6F000EAF6F000E86
:1006CC00B06FAC8A900EAB6E948E949C9EAA03D0A5
:0806DC00AECF00F0FBD71200C5
:1006E400025006180E6E086A096A0B6A0350076402
:1006F40065EF04F006500A6E068E028E03500B6EF0
:100704000750036E000E0B64B5EF03F00B50075E49
:10071400D8B456EF04F0070E076424EF04F0075E24
:1007240000C008F001C000F002C001F0026A074EE8
:1007340056EF04F00764F9EF03F0075E00C008F019
:1007440001C000F0016A074E56EF04F00764D7EFCA
:1007540003F0075E00C008F0006A074E56EF04F08D
:100764000764BEEF03F00AC002F005C001F004C044
:1007740000F0086A80EF05F0030E0764C9EF03F088
:10078400075E08380F0B086E074E56EF04F0D8903A
:100794000832074E56EF04F0D8900832074E56EF51
:1007A40004F0D890083256EF04F0030E0764E8EF23
:1007B40003F0075E08380F0B086E0038F00B0826AC
:1007C40000380F0B006E074E56EF04F0D89000323D
:1007D4000832074E56EF04F0D89000320832074E24
:1007E40056EF04F0D8900032083256EF04F0030EAE
:1007F400076410EF04F0075E08380F0B086E00382A
:10080400F00B082600380F0B006E0138F00B0026A1
:1008140001380F0B016E074E56EF04F0D8900132E9
:1008240000320832074E56EF04F0D89001320032FD
:100834000832074E56EF04F0D890013200320832E5
:1008440056EF04F0030E076441EF04F0075E083826
:100854000F0B086E0038F00B082600380F0B006EE3
:100864000138F00B002601380F0B016E0238F00B33
:10087400012602380F0B026E074E56EF04F0D89093
:100884000232013200320832074E56EF04F0D8909B
:100894000232013200320832074E56EF04F0D8908B
:1008A4000232013200320832096A000E0EAE4AEFFB
:1008B40005F0081E001E011E021E082A0022012245
:1008C40002224AEF05F00750D8A46BEF04F080EF42
:1008D40005F0096A02C00AF0028E068E0750035C16
:1008E400076ED8B43DEF05F0070E07640BEF05F073
:1008F400075E0450096E0550046E0650056E066AC4
:10090400074E3DEF05F0070E0764E0EF04F0075EC5
:100914000450096E0550046E056A074E3DEF05F05C
:10092400070E0764BEEF04F0075E0450096E046A04
:10093400074E3DEF05F0070E0764A5EF04F00AC06B
:1009440002F080EF05F0030E0764B0EF04F0075ED9
:1009540009380F0B096E074E3DEF05F0D8900932A8
:10096400074E3DEF05F0D8900932074E3DEF05F0F4
:10097400D89009323DEF05F0030E0764CFEF04F081
:10098400075E09380F0B096E0438F00B092604388A
:100994000F0B046E074E3DEF05F0D8900432093278
:1009A400074E3DEF05F0D89004320932074E3DEF73
:1009B40005F0D890043209323DEF05F0030E0764C8
:1009C400F7EF04F0075E09380F0B096E0438F00BDB
:1009D400092604380F0B046E0538F00B042605387D
:1009E4000F0B056E074E3DEF05F0D890053204322B
:1009F4000932074E3DEF05F0D89005320432093232
:100A0400074E3DEF05F0D8900532043209323DEF30
:100A140005F0030E076428EF05F0075E09380F0B95
:100A2400096E0438F00B092604380F0B046E0538E0
:100A3400F00B042605380F0B056E0638F00B05265F
:100A440006380F0B066E074E3DEF05F0D8900632C0
:100A5400053204320932074E3DEF05F0D8900632D4
:100A6400053204320932074E3DEF05F0D8900632C4
:100A7400053204320932086A000E0EAE4AEF05F060
:100A8400091E041E051E061E092A0422052206222A
:100A94000950082604500022055001220650022263
:100AA4000EBE61EF05F0D8A070EF05F002320132FE
:100AB40000320832033E70EF05F07AEF05F0D8B04B
:100AC40075EF05F0000E081E001E011E021E082A06
:100AD4000022012202220A7E75EF05F0010E0C6E3F
:100AE40027DC82EF05F0020E0C6E22DC82EF05F0AB
:100AF400040E0C6E56EC01F082EF05F0000E0C6E45
:020B04001200DD
:100B0600380E0101CD6F000ECE6FFB0ECF6F010EBA
:100B1600D06F7C0ED16F010ED26FFA0ED36F010E1D
:100B2600D46F949AEC51040A02E1948601D094960B
:100B36009488C66AC79CC79EEC51C612EE51C6126F
:100B4600ED51C712EE5305E0EF51000AD8B4C78C39
:0C0B560003D0EF53D8A4C78CC68A12004D
:100B6200C3C1E1FFC4C1E2FFECC1E9FFEDC1EAFF8D
:100B7200EECFE6FFC1C100F0C2C101F02EEC01F0E0
:040B8200006A1200F3
:100B86000C6A0E6A0250D8A4DCEF05F001C002F030
:100B960000C001F0006A0E860250D8A4DCEF05F012
:100BA60001C002F0016A0E960E880250D8B4EEEF2C
:100BB60005F00E50035ED8A4D8A0F4EF05F0D89047
:100BC60002BEFAEF05F0003601360236032EE3EFD9
:100BD60005F0F4EF05F0010E0C6E70EC01F0FEEF7F
:100BE60005F0020E0C6E21EC01F0FEEF05F0040E8E
:080BF6000C6E1DEC01F0120071
:100BFE00FC0E0101B16F000EB26FFA0EB36F010E53
:100C0E00B46FFF0EB56FFF0EB66F000EB76F000E0E
:100C1E00B86FFF0EA96FFF0EAA6F000EAB6F000E1E
:100C2E00AC6FFF0EAD6FFF0EAE6F000EAF6F000E0E
:100C3E00B06F0F01218B900E226F98849892A4AA08
:0A0C4E0003D01DCF00F0FBD7120009
:100C5800E5C1F6FFE6C1F7FFE7C1F8FF0900F5CFE8
:100C6800B9F10900F5CFBAF10900F5CFBBF10900D8
:100C7800F5CFBCF1040E0101E525F66E000EE62164
:100C8800F76E000EE721F86E0900F5CFBDF10900F7
:100C9800F5CFBEF10900F5CFBFF10900F5CFC0F1DE
:020CA800120038
:100CAA00080E0101E525F66E000EE621F76E000E2C
:100CBA00E721F86E0900F5CFC5F10900F5CFC6F1B5
:0E0CCA000900F5CFC7F10900F5CFC8F11200FF
:100CD80021D0CF0EAF6EAC94D5DC6BD0670EAF6E63
:100CE800AC94D0DC66D0CF0EAF6EAC84CBDC61D0D8
:100CF800670EAF6EAC84C6DC5CD0440EAF6EAC84BD
:100D0800C1DC57D0220EAF6EAC84BCDC52D0060ECC
:100D1800006E58D00101000E006EE81908E100507D
:100D2800E71905E1120EE61902E1E551C00AD1E022
:100D3800000E006EE81908E10050E71905E1250EDC
:100D4800E61902E1E551800AC9E0000E006EE819D3
:100D580008E10050E71905E14B0EE61902E1E551FB
:100D6800000AC1E0000E006EE81908E10050E7191A
:100D780005E1960EE61902E1E551000AB9E0000E18
:100D8800006EE81908E10050E71905E1E10EE619DF
:100D980002E1E551000AB1E0E851000A08E1E75133
:100DA800010A05E1E651C20A02E1E551000AAAE09A
:100DB800AED7360EC16F010EC26FFA0EC36F010EA9
:060DC800C46F006A120076
:100DCE0021D0CF0EAF6EAC945ADC6BD0670EAF6EE7
:100DDE00AC9455DC66D0CF0EAF6EAC8450DC61D0D7
:100DEE00670EAF6EAC844BDC5CD0440EAF6EAC8441
:100DFE0046DC57D0220EAF6EAC8441DC52D0060ECC
:100E0E00006E58D00101000E006EE81908E1005086
:100E1E00E71905E1120EE61902E1E551C00AD1E02B
:100E2E00000E006EE81908E10050E71905E1250EE5
:100E3E00E61902E1E551800AC9E0000E006EE819DC
:100E4E0008E10050E71905E14B0EE61902E1E55104
:100E5E00000AC1E0000E006EE81908E10050E71923
:100E6E0005E1960EE61902E1E551000AB9E0000E21
:100E7E00006EE81908E10050E71905E1E10EE619E8
:100E8E0002E1E551000AB1E0E851000A08E1E7513C
:100E9E00010A05E1E651C20A02E1E551000AAAE0A3
:100EAE00AED7360EC16F010EC26FFA0EC36F010EB2
:060EBE00C46F006A12007F
:100EC40038D00F0120870D0E1F6F040E1E6F218571
:100ED40094DE7ED00F012087060E1F6F820E1E6FD8
:100EE40021858BDE75D00F012087030E1F6F400E06
:100EF4001E6F218582DE6CD00F012087010E1F6FCB
:100F0400A00E1E6F218579DE63D00F012087010EAC
:100F14001F6F150E1E6F218570DE5AD00F012087BA
:100F24001F6B8A0E1E6F218568DE52D0060E006E7E
:100F340059D0000E006E0101E81908E10050E719CC
:100F440005E1120EE61902E1E551C00ABAE0000E0D
:100F5400006EE81908E10050E71905E1250EE619CD
:100F640002E1E551800AB6E0000E006EE81908E1DE
:100F74000050E71905E14B0EE61902E1E551000ABC
:100F8400B2E0000E006EE81908E10050E71905E12F
:100F9400960EE61902E1E551000AAEE0000E006E7D
:100FA400E81908E10050E71905E1E10EE61902E14C
:100FB400E551000AAAE0E851000A08E1E751010AF4
:100FC40005E1E651C20A02E1E551000AA7E0AED705
:100FD4000101FC0EC16F000EC26FFA0EC36F010E49
:060FE400C46F006A120058
:100FEA005DD00101E6B102D0929401D092840F0142
:100FFA0025957AD00101E6B102D0969601D096865F
:10100A0073D00101E6B102D0969401D096846CD0D7
:10101A000101E6B102D0949601D0948665D001010F
:10102A00E6B102D0949801D094885ED00101E6B16D
:10103A0002D0949A01D0948A57D00101E6B102D025
:10104A00989001D0988050D00101E6B102D09394D3
:10105A0001D0938449D00101E6B102D0989401D01D
:10106A0098840F01239540D00101E6B102D09892ED
:10107A0001D098820F01239337D00101E6B102D043
:10108A00949601D0948630D00101E6B102D09498AA
:10109A0001D0948829D0010E006E28D00101E551B3
:1010AA00000A9FE0E551010AA5E0E551020AA9E01C
:1010BA00E551030AADE0E551040AB1E0E551050A3C
:1010CA00B5E0E551060AB9E0E551070ABDE0E55188
:1010DA00080AC1E0E551090AC7E0E5510A0ACDE06C
:0E10EA00E5510B0AD1E0D7D7000E006E1200C0
:1010F80059D00101E6B102D0929201D092820F013B
:10110800259376D00101E6B102D0929801D0928859
:101118006FD00101E6B102D0969201D0968268D0D4
:101128000101E6B102D0949601D0948661D0010104
:10113800E6B102D0949801D094885AD00101E6B162
:1011480002D0949A01D0948A53D00101E6B102D01A
:10115800949401D094844CD00101E6B102D09392CA
:1011680001D0938245D00101E6B102D0949E01D00E
:10117800948E3ED00101E6B102D0949C01D0948CAB
:1011880037D00101E6B102D0949601D0948630D0D0
:101198000101E6B102D0949801D0948829D0010EBB
:1011A800006E28D00101E551000AA3E0E551010ACB
:1011B800A9E0E551020AADE0E551030AB1E0E551C5
:1011C800040AB5E0E551050AB9E0E551060ABDE0B3
:1011D800E551070AC1E0E551080AC5E0E551090AE9
:1011E800C9E0E5510A0ACDE0E5510B0AD1E0D7D7AD
:0611F800000E006E120063
:1011FE0059D00101E6B102D0929001D092800F0138
:10120E00259176D00101E6B102D0949001D0948060
:10121E006FD00101E6B102D0969001D0968068D0D1
:10122E000101E6B102D0949601D0948661D00101FD
:10123E00E6B102D0949801D094885AD00101E6B15B
:10124E0002D0949A01D0948A53D00101E6B102D013
:10125E00949201D094824CD00101E6B102D09390C9
:10126E0001D0938045D00101E6B102D0949E01D009
:10127E00948E3ED00101E6B102D0949C01D0948CA4
:10128E0037D00101E6B102D0949601D0948630D0C9
:10129E000101E6B102D0949801D0948829D0010EB4
:1012AE00006E28D00101E551000AA3E0E551010AC4
:1012BE00A9E0E551020AADE0E551030AB1E0E551BE
:1012CE00040AB5E0E551050AB9E0E551060ABDE0AC
:1012DE00E551070AC1E0E551080AC5E0E551090AE2
:1012EE00C9E0E5510A0ACDE0E5510B0AD1E0D7D7A6
:0612FE00000E006E12005C
:10130400E5C1F6FFE6C1F7FFE7C1F8FF0900F5CF35
:10131400ECF1040E0101E525F66E000EE621F76EF0
:10132400000EE721F86E0900F5CFEDF1080EE52572
:10133400F66E000EE621F76E000EE721F86E090046
:10134400F5CFEEF10C0EE525F66E000EE621F76EF4
:10135400000EE721F86E0900F5CFEFF183EC05F0FC
:06136400000E006E1200F5
:10136A0027D0CF0EAF6EAC9446EC03F070D0670E68
:10137A00AF6EAC9446EC03F06AD0CF0EAF6EAC847D
:10138A0046EC03F064D0670EAF6EAC8446EC03F013
:10139A005ED0440EAF6EAC8446EC03F058D0220EF9
:1013AA00AF6EAC8446EC03F052D0060E006E58D0F5
:1013BA000101000E006EE81908E10050E71905E185
:1013CA00120EE61902E1E551C00ACBE0000E006EEA
:1013DA00E81908E10050E71905E1250EE61902E1CE
:1013EA00E551800AC4E0000E006EE81908E10050D9
:1013FA00E71905E14B0EE61902E1E551000ABDE0E5
:10140A00000E006EE81908E10050E71905E1960E92
:10141A00E61902E1E551000AB6E0000E006EE8198D
:10142A0008E10050E71905E1E10EE61902E1E5518C
:10143A00000AAFE0E851000A08E1E751010A05E1B4
:10144A00E651C20A02E1E551000AA9E0AED7360E1A
:10145A00C16F010EC26FFA0EC36F010EC46F006A2C
:02146A0012006E
:10146C00E5C1F6FFE6C1F7FFE7C1F8FF0900F5CFCC
:10147C00ECF1040E0101E525F66E000EE621F76E87
:10148C00000EE721F86E0900F5CFEDF1080EE52509
:10149C00F66E000EE621F76E000EE721F86E0900DD
:1014AC00F5CFEEF10C0EE525F66E000EE621F76E8B
:1014BC00000EE721F86E0900F5CFEFF183EC05F093
:0614CC00000E006E12008C
:1014D200E5C1F6FFE6C1F7FFE7C1F8FF0900F5CF66
:1014E200ECF1040E0101E525F66E000EE621F76E21
:1014F200000EE721F86E0900F5CFEDF1080EE525A3
:10150200F66E000EE621F76E000EE721F86E090076
:10151200F5CFEEF10C0EE525F66E000EE621F76E24
:10152200000EE721F86E0900F5CFEFF183EC05F02C
:06153200000E006E120025
:10153800086A096A000E0762036421EF0BF0025083
:1015480006180A6E075003267E0ED8A0B2EF0AF0DE
:10155800035ED8B026EF0BF0B6EF0AF0035ED8A012
:101568002BEF0BF0028E068E02C00EF001C00BF0BE
:1015780000C00DF000500402F4CF0CF00150050239
:10158800F4CF00F0F3CF08F00402F3500C26F45027
:101598000822000E00220D500502F3500C26F450CC
:1015A8000822000E002202500402F3500826F450CC
:1015B800002202500502016A000E0122F3500026A3
:1015C800F45001220D500602F3500826F450002270
:1015D800026A000E012202220B500602F350002676
:1015E800F4500122000E02220E500602F35001268A
:1015F800F450022202BE09EF0BF00836003601361D
:1016080002360306D8B42BEF0BF01CEF0BF0D88092
:10161800800E08640030000E002201220222D8A0A9
:101628001CEF0BF0023201320032034A26EF0BF0B6
:101638000AAE029E000E2EEF0BF0010E70EC01F0C8
:101648002EEF0BF0020E56EC01F02EEF0BF0040E0D
:0616580021EC01F012007C
:08165E00067E72EC03F012009D
:10166600E5C104F0E6C105F004C002F005C003F0D0
:10167600044A052AE7C100F0E8C101F00101E74B81
:10168600E82B00C0E9FF01C0EAFF02C0E1FF03C08A
:10169600E2FFEECFE6FF02C0E9FF03C0EAFFEE522B
:0E16A60001E0E2D7E5C100F0E6C101F012005C
:1016B4000050086E0150006E016A026A036A0B6AE8
:1016C4000C6A960E036E0A6A00C001F008C000F0AE
:0A16D400086A026AC3EC05F0120078
:1016DE00B9EC02F000C004F001C005F002C006F043
:1016EE0003C007F00732063205320432079E073276
:1016FE00063205320432079E010E0414006E05C038
:10170E0001F006C002F007C003F0000E011602162B
:04171E00031612009C
:10172200B9EC02F000C004F001C005F002C006F0FE
:1017320003C007F00732063205320432079E010E5B
:101742000414006E05C001F006C002F007C003F0E9
:0A175200000E011602160316120025
:10175C00B9EC02F0010E0016000E0116021603166B
:02176C00120069
:10176E000D6A086A0050D8B4000C04180A6E0ABE3E
:10177E000D1E0B6A04AE02D0041E042A00AE02D067
:10178E00001E002A005004100A6E0ABE1FD004501C
:10179E00085E003600340836045008260036060E61
:1017AE000C6E00340836045000B0085E00A0082607
:1017BE0000360C2EF6D700A008260BB015D00DAEB5
:1017CE00000C001E002A081E082A000C04AE09D0C8
:1017DE0000BE04D00050086E006AF1D7006A002ADD
:1017EE00000C001E0B2AD3D7082A0450085CD8A47C
:0E17FE00E6D7086A002A00AEE2D7FF0C120000
:10180C00E5C1E8F1E6C1E9F10D0E0101EA6F0A0E3E
:10181C00EB6F3AD0E8C1ECF1E9C1EDF1B1EC05F0B8
:10182C003ED0E8C1E9FFE9C1EAFFEE520AE0E8C1A7
:10183C00ECF1E9C1EDF1B1EC05F00101E84BE92B5C
:10184C00F0D72DD0E8C1E9FFE9C1EAFFEE520AE07A
:10185C00E8C1ECF1E9C1EDF1B1EC05F00101E84BA7
:10186C00E92BF0D70101EA0EEC6F010EED6FB1EC34
:10187C0005F0EB0E0101EC6F010EED6FB1EC05F014
:10188C000ED0060E006E0CD00101E751000AC2E02A
:10189C00E751010AC6E0E751020AD4E0F2D7006A28
:0218AC00120028
:1018AE000A6A0350D8A40A800750D8A40A820A50A4
:1018BE00D8B4BAEF0CF0030AD8B473EF0CF00AB038
:1018CE006EEF0CF006AEB8EF0CF0B6EF0CF002AE09
:1018DE00B6EF0CF0B8EF0CF00250800B0A6E029EC1
:1018EE000650800B069E0A18D8B484EF0CF00A50EE
:1018FE00D8B4B6EF0CF0B8EF0CF00750035CD8B4C8
:10190E008EEF0CF0D8A0AAEF0CF0B0EF0CF0065052
:10191E00025CD8B498EF0CF0D8A0AAEF0CF0B0EFA0
:10192E000CF00550015CD8B4A2EF0CF0D8A0AAEFD1
:10193E000CF0B0EF0CF00450005CD8B4BAEF0CF021
:10194E00D8B0B0EF0CF00A52D8B4B8EF0CF0B6EF36
:10195E000CF00A52D8B4B6EF0CF0B8EF0CF0D880F9
:0E196E001200D8901200D880D8841200120007
:10197C00D8C1E5F1D9C1E6F1DAC1E7F12CEC06F0FA
:10198C00D5C1E5F1D6C1E6F1D7C1E7F155EC06F0CA
:10199C00C7C1E1FFC8C1E2FFE66AC5C100F0C6C11C
:0819AC0001F02EEC01F0120025
:1019B4001BD0D6C1E5F1D7C1E6F1D8C1E7F1A0DC6F
:1019C4001ED0D6C1E5F1D7C1E6F1D8C1E7F17FDD7C
:1019D40016D0D6C1E5F1D7C1E6F1D8C1E7F144DDAF
:1019E4000ED0010E006E0BD00101D551000AE1E0CA
:1019F400D551010AE6E0D551020AEBE0F2D7120014
:101A0400DA0E0101E56F000EE66F020EE76FFCDEF1
:101A140064DE005207E0C10EE56F000EE66F020EB1
:101A2400E76FF2DE7CDE005207E0150EE56F000E74
:101A3400E66F020EE76FE8DE8FDE005207E02E0E3F
:101A4400E56F000EE66F020EE76FDEDE760E010133
:0E1A5400E56F000EE66F020EE76FD6DE1200A1
:101A620018D0D6C1E5F1D7C1E6F1FFEC08F01CD0E1
:101A7200D6C1E5F1D7C1E6F17CEC08F015D0D6C1AC
:101A8200E5F1D7C1E6F1F5EC07F00ED0010E006EDC
:101A92000BD00101D551000AE4E0D551010AE8E07A
:0A1AA200D551020AECE0F2D7120061
:101AAC00B9EC02F002C004F003C005F0066A076A44
:101ABC00010E0414006E05C001F006C002F007C050
:0C1ACC0003F0000E0116021603161200B3
:101AD8002ED0D6C1E5F1D7C1E6F1D8C1E7F1D9C119
:101AE800E8F13FDC32D0D6C1E5F1D7C1E6F1D8C183
:101AF800E7F1D9C1E8F1E7EC06F027D0D6C1E5F166
:101B0800D7C1E6F1D8C1E7F1D9C1E8F162EC07F035
:101B18001CD0D6C1E5F1D7C1E6F1D8C1E7F1D9C1EA
:101B2800E8F16CEC06F011D0010E006E0ED0010148
:101B3800D551000ACEE0D551010AD5E0D551020AA7
:0C1B4800DDE0D551100AE5E0EFD71200F7
:101B54000101E16BE26BD5C1DDF1D6C1DEF1D7C184
:101B6400DFF1D8C1E0F1E051FF0A08E1DF51FF0ADB
:101B740005E1DE51FF0A02E1DD51FF0A0CE1D9C1A2
:101B8400E5F1DAC1E6F16F0EE76F010EE86F69DD8A
:101B9400030E006EE9D1010EDB6FDFAF0ED0800EB5
:101BA400DF19006E00C0DFF1DB2BD9C1E1FFDAC120
:101BB400E2FF2D0EE66ED94BDA2B000E006EE01913
:101BC40008E10050DF1905E10050DE1902E1DD51A2
:101BD400000A0BE1D9C1E5F1DAC1E6F14B0EE76F7A
:101BE400000EE86F3EDD006ABFD1E051FF0A08E154
:101BF400DF51000A05E1DE51000A02E1DD51000A6D
:101C04000CE1D9C1E5F1DAC1E6F1470EE76F000E48
:101C1400E86F27DDDBC100F0A7D1000E046E000ED3
:101C2400056E000E066E7F0E076EDDC100F0DEC18C
:101C340001F0DFC102F0E0C103F037DE010ED8B0DD
:101C4400000E006E00521BE0DDC100F0DEC101F0A9
:101C5400DFC102F0E0C103F0000E046E000E056E59
:101C6400200E066E820E076E65DC00C0DDF101C039
:101C7400DEF102C0DFF103C0E0F1E207CED7000ECF
:101C8400046E000E056E200E066E820E076EDDC118
:101C940000F0DEC101F0DFC102F0E0C103F005DEB7
:101CA400000ED8B0010E006E00521BE0DDC100F042
:101CB400DEC101F0DFC102F0E0C103F0CD0E046E1D
:101CC400CC0E056E4C0E066E7B0E076E33DC00C028
:101CD400DDF101C0DEF102C0DFF103C0E0F1E22B6F
:101CE400CED7FF0EDD15086EFF0EDE15096E7F0ED2
:101CF400DF150A6E000EE0150B6E08C004F009C073
:101D040005F00AC006F00BC007F00436049005364F
:101D140006360736000EDD15006E000EDE15016E68
:101D2400000EDF15026EFF0EE015036E00C0DDF13C
:101D340001C0DEF102C0DFF103C0E0F10450DD11A7
:101D4400006E0550DE11016E0650DF11026E075061
:101D5400E011036E00C0DDF101C0DEF102C0DFF16D
:101D640003C0E0F17F0EE05D006E00C0DCF1010E07
:101D7400E06F00C004F0DDC100F0DEC101F0DFC19E
:101D840002F0E0C103F0045007E000360090013691
:101D940002360336FF0FF8D700C0DDF101C0DEF1D3
:101DA40002C0DFF103C0E0F1D9C1E1FFDAC1E2FF13
:101DB400E051300FE66ED94BDA2B800EE219006E3B
:101DC400800E010A005C08E3800E060A006E800E95
:101DD400E219005C01E30AD0D9C1E1FFDAC1E2FFF4
:101DE4002E0EE66ED94BDA2B010EE16F060EDC6F78
:101DF400DC51000A54E0E06BDDC100F0DEC101F00B
:101E0400DFC102F0E0C103F0003600900136023673
:101E1400033600360090013602360336DD510026C3
:101E2400DE510122DF510222E051032200C0DDF124
:101E340001C0DEF102C0DFF103C0E0F1DDC100F05A
:101E4400DEC101F0DFC102F0E0C103F00036009012
:101E540001360236033600C0DDF101C0DEF102C0F6
:101E6400DFF103C0E0F1D9C1E1FFDAC1E2FFE051E3
:101E7400300FE66ED94BDA2BE151000A0EE1E2078E
:101E8400E251000A0AE1D9C1E1FFDAC1E2FF2E0EF4
:101E9400E66ED94BDA2B010EE16FDC07A9D7FF0EF2
:101EA400D925E96EFF0EDA21EA6EEE50300A05E11B
:101EB400010ED95F000EDA5BF2D7FF0ED925E96E69
:101EC400FF0EDA21EA6EEE502E0A04E1010ED95F0C
:101ED400000EDA5BE251000A41E0D9C1E1FFDAC148
:101EE400E2FF650EE66ED94BDA2B800EE219006E26
:101EF400800E000A005C0BE2D9C1E1FFDAC1E2FF07
:101F04002D0EE66ED94BDA2BE2510008E26FE2C1E6
:101F1400DCF1800E090A006E800EE219005C0EE20C
:101F24000A0E046EDCC100F020DCD9C1E1FFDAC185
:101F3400E2FF0050300FE66ED94BDA2B0A0E046E26
:101F4400DCC100F012DC08C000F0D9C1E1FFDAC145
:101F5400E2FF0050300FE66ED94BDA2BD9C1E1FF16
:0A1F6400DAC1E2FFE66A006A12002B
:101F6E00C7C1E1FFC8C1E2FFE66AC5C100F0C6C144
:101F7E0001F02EEC01F08BEC02F0D50E0101F46FA6
:101F8E00010EF56F040EF66F000EF76F94EC02F073
:101F9E00C7C1E1FFC8C1E2FF010EE66EC5C100F088
:101FAE00C6C101F02EEC01F0D5C1D9F1000E010130
:101FBE00DA6FD9C1DAF1D96BD651D913000EDA1313
:101FCE00D551800879E2D91DE36FDA1DE46FE3C1C4
:101FDE00D9F1E4C1DAF1E3C100F0E4C101F001325C
:101FEE000032019E01320032019E030E0016000ED9
:101FFE0001165AEC0BF000C0DBF101C0DCF102C09F
:10200E00DDF103C0DEF1000E046E000E056E800ED3
:10201E00066E7D0E076E9CEC0AF000C0DFF101C06B
:10202E00E0F102C0E1F103C0E2F1DFC1DBF1E0C19A
:10203E00DCF1E1C1DDF1E2C1DEF1E3C100F0E4C1AA
:10204E0001F001320032019E01320032019E013256
:10205E000032019E01320032019E5AEC0BF000C09C
:10206E0004F001C005F002C006F003C007F0DFC1A6
:10207E0000F0E0C101F0E1C102F0E2C103F02FEC8B
:10208E000BF000C0DBF101C0DCF102C0DDF103C0DA
:10209E00DEF1000E046E000E056E000E066E7F0E53
:1020AE00076E72EC03F000C0DBF101C0DCF102C080
:1020BE00DDF103C0DEF156D0D9C100F0DAC101F076
:1020CE0001320032019E01320032019E030E0016D3
:1020DE00000E01165AEC0BF000C0DBF101C0DCF172
:1020EE0002C0DDF103C0DEF1000E046E000E056EBF
:1020FE00000E066E7D0E076E9CEC0AF000C0DFF13E
:10210E0001C0E0F102C0E1F103C0E2F1DFC1DBF199
:10211E00E0C1DCF1E1C1DDF1E2C1DEF1D9C100F0D7
:10212E00DAC101F001320032019E01320032019E0D
:10213E0001320032019E01320032019E5AEC0BF048
:10214E00DFC104F0E0C105F0E1C106F0E2C107F025
:10215E0072EC03F000C0DBF101C0DCF102C0DDF176
:10216E0003C0DEF1DBC100F0DCC101F0DDC102F025
:06217E00DEC103F01200B7
:102184000101D56B020ED66FD76B69DC0101D56BEB
:102194000E0ED66F250ED76F000ED86F09DC100E09
:1021A400D56F800ED66F250ED76F000ED86FD96FFE
:1021B40091DC4D0E0101E56F000EE66F020EE76F34
:1021C40006EC0CF03D0E0101E56F010EE66F020E08
:1021D400E76F06EC0CF0560E0101E56F010EE66F99
:1021E400020EE76F06EC0CF0090E0B6E1E0E0C6E61
:1021F400E40E0D6E0D2EFED70C2EFCD70B2EFAD747
:0422040000001200C4
:102208000900F5CFE6FF0006FBE10106F9E112003F
:10221800AE0E0101D56F240ED66F000ED76F1E0EBD
:10222800D86F250ED96F000EDA6FBEEC0CF0090ED0
:102238000B6E1E0E0C6EE40E0D6E0D2EFED70C2EC0
:10224800FCD70B2EFAD70000F20E0101E56F000E45
:10225800E66F020EE76F06EC0CF0240E0101E56F45
:10226800010EE66F020EE76F06EC0CF0200E01017E
:10227800A56FB00EA66F430EA76FA86B13DC0052B4
:1022880003E002EC0DF009D0A80E0101E56F000E85
:10229800E66F020EE76F06EC0CF08F0E0101E56F9A
:0E22A800000EE66F020EE76F06EC0CF012005F
:1022B6005BDE00C0C9F101C0CAF102C0CBF103C0A8
:1022C600CCF100C0D5F101C0D6F102C0D7F103C0F0
:1022D600D8F1730ED96F010EDA6F39DC660EE56F31
:1022E600000EE66F010EE76F06EC0CF0730E0101AF
:1022F600E56F010EE66F010EE76F06EC0CF0A50E1A
:102306000101E56F010EE66F020EE76F06EC0CF0B9
:102316000B0E0101E56F010EE66F020EE76F06EC8C
:102326000CF0F40E0B6E820E0C6E050E0D6E0D2E5D
:0C233600FED70C2EFCD70B2EFAD712009D
:0E23420093EC12F01EDF67DFB5DFFED7FFD78A
:1025260010EE15F05E0E006E020E016E500EF66E87
:0E253600230EF76E000EF86E04EC11F012008A
:102350002053686F72742D63697263756974656464
:0923600020746F20474E44200058
:1023690020202020204E6F20436F6E6E65637469B4
:092379006F6E732020202020006B
:04238200494E46007A
:02238600300025
:102388002D2D2D2D2D2D2D2D2D2D2D2D2D2D2D2D75
:092398002D2D2D2D2D2D2D2D00D4
:1023A1002054656D7065726174757265203A200004
:1023B1002D2D2D2D2D2D2D2D2D2D2D2D2D2D2D2D4C
:0923C1002D2D2D2D2D2D2D2D00AB
:1023CA002D2D2D2D2D2D2D2D2D2D2D2D2D2D2D2D33
:0923DA002D2D2D2D2D2D2D2D0092
:1023E30020202020202020535441545553204F4B6C
:0923F300202020202020202000E1
:1023FC002053686F72742D636972637569746564B8
:09240C0020746F20566363200068
:102415002020202020202020204552524F522020CD
:082425002020202020202000CF
:10242D0020202044726976657220496E6974696155
:09243D006C697A6564202020001E
:102446002D2D2D2D2D2D2D2D2D2D2D2D2D2D2D2DB6
:092456002D2D2D2D2D2D2D2D0015
:10245F002D2D2D2D2D2D2D2D2D2D2D2D2D2D2D2D9D
:09246F002D2D2D2D2D2D2D2D00FC
:10247800202020202020546865726D6F20436C69ED
:09248800636B20202020202000BD
:102491002D2D2D2D2D2D2D2D2D2D2D2D2D2D2D2D6B
:0924A1002D2D2D2D2D2D2D2D00CA
:0424AA004E614E0031
:1024AE002603FA011803FA019801FA01EE00FA0167
:1024BE00B600FA010202FA01F401FA011E02FA0153
:1024CE001002FA01CA01FA01BC01FA01E601FA0191
:1024DE00FFFFFFFFFFFFFFFFFFFFFFFFFFFFFFFFFE
:1024EE00FFFFFFFFFFFFFFFFFFFFFFFFFFFFFFFFEE
:1024FE00FFFFFFFFFFFFFFFFFFFFFFFFFFFFFFFFDE
:10250E0002000000000000000000000001000000BA
:08251E007C01FA013800FB0109
:020000040030CA
:0E00000015137F7CF98B91FFFFC0FFE0FF40DE
:00000001FF
